:100000000C9462000C948A000C948A000C948A0070
:100010000C948A000C948A000C948A000C948A0038
:100020000C948A000C948A000C948A000C948A0028
:100030000C948A000C948A000C948A000C948A0018
:100040000C9490080C948A000C945E080C94380868
:100050000C948A000C948A000C948A000C948A00F8
:100060000C94DA080C948A00000000002400270099
:100070002A0000000000250028002B0000000000DE
:1000800023002600290004040404040404040202DA
:100090000202020203030303030301020408102007
:1000A0004080010204081020010204081020000012
:1000B0000008000201000003040700000000000027
:1000C0000000F90911241FBECFEFD8E0DEBFCDBF7D
:1000D00011E0A0E0B1E0E6E3FDE102C005900D9281
:1000E000A43BB107D9F723E0A4EBB1E001C01D9216
:1000F000A633B207E1F710E0C2E6D0E004C02197D2
:10010000FE010E94930EC136D107C9F70E94470A2B
:100110000C94990E0C94000008950895AF92BF922C
:10012000CF92DF92EF92FF920F931F93CF93DF93C3
:100130006C017B018B01040F151FEB015E01AE18F2
:10014000BF08C017D10759F06991D601ED91FC9114
:100150000190F081E02DC6010995892B79F7C50141
:10016000DF91CF911F910F91FF90EF90DF90CF9093
:10017000BF90AF900895FC01538D448D252F30E042
:10018000842F90E0821B930B541710F0CF960895A4
:1001900001970895FC01918D828D981761F0A28DD1
:1001A000AE0FBF2FB11D5D968C91928D9F5F9F7397
:1001B000928F90E008958FEF9FEF0895FC01918D4D
:1001C000828D981731F0828DE80FF11D858D90E0BA
:1001D00008958FEF9FEF0895FC01918D228D892F57
:1001E00090E0805C9F4F821B91098F73992708953F
:1001F00087E792E00E94EC0021E0892B09F420E0DF
:10020000822F089580E090E0892B29F00E94F80069
:1002100081110C9400000895FC01A48DA80FB92F42
:10022000B11DA35ABF4F2C91848D90E001968F731E
:100230009927848FA689B7892C93A089B1898C913D
:10024000837080648C93938D848D981306C002888C
:10025000F389E02D80818F7D80830895EF92FF9256
:100260000F931F93CF93DF93EC0181E0888F9B8DD9
:100270008C8D98131AC0E889F989808185FF15C093
:100280009FB7F894EE89FF896083E889F9898081B6
:100290008370806480839FBF81E090E0DF91CF9185
:1002A0001F910F91FF90EF900895F62E0B8D10E0A7
:1002B0000F5F1F4F0F731127E02E8C8D8E110CC016
:1002C0000FB607FCFACFE889F989808185FFF5CF61
:1002D000CE010E940C01F1CFEB8DEC0FFD2FF11D33
:1002E000E35AFF4FF0829FB7F8940B8FEA89FB899E
:1002F00080818062CFCFCF93DF93EC01888D8823FC
:10030000B9F0AA89BB89E889F9898C9185FD03C078
:10031000808186FD0DC00FB607FCF7CF8C9185FF5D
:10032000F2CF808185FFEDCFCE010E940C01E9CF95
:10033000DF91CF910895833081F028F4813099F0D6
:100340008230A9F008958730A9F08830C9F0843050
:10035000B1F4809180008F7D03C0809180008F7701
:1003600080938000089584B58F7784BD089584B507
:100370008F7DFBCF8091B0008F778093B000089580
:100380008091B0008F7DF9CFCF93DF93282F30E09D
:10039000F901E255FF4F8491F901E656FF4FD491E0
:1003A000F901EA57FF4FC491CC23A1F081110E94BB
:1003B0009B01EC2FF0E0EE0FFF1FE458FF4FA591DB
:1003C000B491EC91ED2381E090E009F480E0DF91BD
:1003D000CF91089580E090E0FACF1F93CF93DF9301
:1003E000282F30E0F901E255FF4F8491F901E656DC
:1003F000FF4FD491F901EA57FF4FC491CC23A9F0E4
:10040000162F81110E949B01EC2FF0E0EE0FFF1FD1
:10041000EE58FF4FA591B4918FB7F894EC9111115C
:1004200008C0D095DE23DC938FBFDF91CF911F9161
:100430000895DE2BF8CFCF93DF9390E0FC01E656D2
:10044000FF4F24918A579F4FFC0184918823D1F05C
:1004500090E0880F991FFC01E859FF4FA591B491D6
:10046000FC01EE58FF4FC591D49161110EC09FB7AA
:10047000F8948C91E22FE0958E238C932881E223CF
:10048000E8839FBFDF91CF9108958FB7F894EC91E7
:10049000E22BEC938FBFF6CFCF93DF93CCE2D3E088
:1004A00061E089810E941B0260E089810E94ED0168
:1004B00061E088810E94ED0161E089810E94ED0187
:1004C00060E08981DF91CF910C941B02CF93DF9381
:1004D000CCE2D3E061E089810E941B0260E0888168
:1004E0000E94ED0161E089810E94ED0161E0888157
:1004F0000E94ED0160E088810E94ED0160E0898149
:10050000DF91CF910C941B0260E080912D030E943B
:100510001B0261E080912C030E94ED0180912D036C
:100520000E94C4010197D1F360E080912C030C94E8
:10053000ED013FB7F89480916B0290916C02A0910D
:100540006D02B0916E0226B5A89B05C02F3F19F031
:100550000196A11DB11D3FBFBA2FA92F982F882743
:10056000BC01CD01620F711D811D911D42E0660F1E
:10057000771F881F991F4A95D1F708958F929F92F0
:10058000AF92BF92CF92DF92EF92FF924B015C014C
:100590000E9499026B017C010E9499026C197D09ED
:1005A0008E099F09683E734081059105A8F321E0FB
:1005B000821A9108A108B10888EEC80E83E0D81EFF
:1005C000E11CF11C81149104A104B10429F7FF90EE
:1005D000EF90DF90CF90BF90AF909F908F90089555
:1005E00020911C02260F3327331F21323105ECF4F2
:1005F00020914002FC0190E080E0243069F082E02C
:100600000895A0911C022191AC0144505E4FA40FAB
:10061000B52FB11D2C930196861798F380911C027B
:10062000680F60931C0280E0089581E008951092A5
:10063000400281E0809342021092410261E082E137
:100640000E94ED0161E083E10E94ED01E9EBF0E041
:1006500080818E7F808380818D7F808388E48093FA
:10066000B80085E48093BC000895CF93DF9391E0B8
:100670009093FB018823B9F0C091B800D091BA00E3
:100680008091BC008A7B8093BC0060E082E10E9484
:10069000ED0160E083E10E94ED010E941703D09319
:1006A000BA00C093B800DF91CF9108950895E0910A
:1006B000760280917502E81730F4F0E0EA52FE4FBE
:1006C000808190E008958FEF9FEF089590917602DA
:1006D000809175022FEF3FEF981748F4E92FF0E073
:1006E000EA52FE4F208130E09F5F90937602C9016D
:1006F00008958091750290917602891B990B089557
:10070000CF92DF92EF92FF920F931F93CF93DF93DD
:100710007C01CB018A012091D501222389F0EB01D4
:100720006B01C40ED51ECC15DD0569F06991D701AA
:10073000ED91FC910190F081E02DC7010995F3CF77
:10074000642F0E94F002C801DF91CF911F910F9199
:10075000FF90EF90DF90CF900895CF93DF931F929B
:10076000CDB7DEB769832091D5012223F9F020911E
:100770007302203258F021E030E0FC013383228301
:1007800090E080E00F90DF91CF9108958091740206
:10079000E82FF0E0EB54FE4F998190838F5F8093B8
:1007A00074028093730281E090E0ECCF61E0CE01AF
:1007B00001960E94F002F7CFCF92DF92EF92FF9264
:1007C0000F931F93CF93DF93FC01C48121E020930B
:1007D000D501C093B4011092740210927302838504
:1007E000682B84E193E00E94AD03D0917302D13273
:1007F00008F092C00E9499026B017C018091400236
:10080000811165C082E08093400281E080934202C2
:100810008FEF80933F0210926402D0936302A5EBA6
:10082000B1E0E3E4F2E080E0D81385C01092650205
:1008300080916502CC0FC82BC09365028091410264
:10084000813009F07CC0109241020E9499026B0134
:100850007C01809165028093BB008091F7019091AB
:10086000F801A091F901B091FA01892B8A2B8B2B09
:1008700099F00E9499020091F7011091F8012091DE
:10088000F9013091FA016C197D098E099F0906174B
:10089000170728073907E0F18091BC0083FDD9CF05
:1008A00085EC8093BC000E9499026B017C018091D1
:1008B0004002823009F445C080913F028F3F61F1D0
:1008C00080913F02803241F180913F0225C08091AA
:1008D000F7019091F801A091F901B091FA01892BEB
:1008E0008A2B8B2B09F48ACF0E9499020091F70181
:1008F0001091F8012091F9013091FA016C197D09EC
:100900008E099F09061717072807390708F076CFC1
:100910008091F6010E9435031092740210927302C6
:100920001092D501DF91CF911F910F91FF90EF9021
:10093000DF90CF9008959D9191938F5F75CF85EE55
:10094000B0CF8091F7019091F801A091F901B09199
:10095000FA01892B8A2B8B2B09F4A9CF0E949902CB
:100960000091F7011091F8012091F9013091FA01FD
:100970006C197D098E099F09061717072807390783
:1009800008F095CFC5CF089590E080E008951F93BB
:10099000CF93DF9360E080912D030E941B02C7E09C
:1009A000D0E010E061E080912C030E94ED01809185
:1009B0002D030E94C40199270C2E01C0880F0A94B0
:1009C000EAF7182B60E080912C030E94ED0121973B
:1009D00048F7812FDF91CF911F9108950F931F93B7
:1009E000CF93DF93082F162FD42FC8E06D2F661FEB
:1009F0006627661F802F0E94ED01DD0F61E0812FC9
:100A00000E94ED0160E0812F0E94ED01C15071F75D
:100A1000DF91CF911F910F9108951F93CF93DF9393
:100A2000182FCCE2D3E061E089810E941B0261E0D3
:100A300089810E94ED0161E088810E94ED0160E002
:100A400089810E94ED0160E088810E94ED01412FC3
:100A500068818981DF91CF911F910C94EE04EF9210
:100A6000FF920F931F93CF93DF93CDB7DEB72897F5
:100A70000FB6F894DEBF0FBECDBF8091350388233B
:100A800009F49BC084EE8093BC008091BC0087FF7A
:100A9000FCCF80ED8093BB0084EC8093BC00809100
:100AA000BC0087FFFCCF1092BB0084EC8093BC009D
:100AB0008091BC0087FFFCCF84EE8093BC008091C6
:100AC000BC0087FFFCCF81ED8093BB0084EC80935A
:100AD000BC008091BC0087FFFCCFEEE2F3E085E331
:100AE00093E034EC3093BC002091BC0027FFFCCF96
:100AF0002091BB0021938E179F07A1F784E8809374
:100B0000BC008091BC0087FFFCCF84E98093BC00CF
:100B100040912E03842F829587705AE04F70859FF5
:100B2000400D112430912F03832F829587703F70E1
:100B3000859F300D112460913003262F2F70862F52
:100B400090E067FF89C065FB882780F9FCE08F9FF4
:100B5000200D1124F0913103509132036091330341
:100B600080913403952F929597707AE05F70979FEC
:100B7000500D1124E62FE295E7706F70E79F600D2E
:100B80001124982F92959F708F70979F800D11243C
:100B900090E08053984F9F838E83782F8F819F2F73
:100BA00028960FB6F894DEBF0FBECDBFDF91CF9170
:100BB0001F910F91FF90EF90089580ED0E940D0519
:100BC0000E94840261E080912D030E941B0240E09C
:100BD00060912C0380912D030E94EE040E948402F8
:100BE00081ED0E940D050E9484027EE2E72E73E0F3
:100BF000F72E10E000E00E94C704F70181937F0107
:100C00000630110531F161E080912D030E941B0235
:100C100060E080912C030E94ED0160E080912D0343
:100C20000E94ED0161E080912C030E94ED0160E0E3
:100C300080912C030E94ED0160E080912D030E94C1
:100C40001B020F5F1F4F07301105A9F60E944C02CF
:100C50005FCF0E946602F5CF64E0959587956A950F
:100C6000E1F78370859F200D112474CFCF93DF931C
:100C7000CDB7DEB728970FB6F894DEBF0FBECDBF55
:100C80000E942F056D837E838F8380E35A3028F086
:100C9000852F6AE00E943D0E805D809309013AE055
:100CA000852F632F0E943D0E905D90930A018EE286
:100CB00080930B012D8180E32A3020F0822F0E9447
:100CC0003D0E805D80930C01822F6AE00E943D0EF4
:100CD000905D90930D018EE280930E012E813F81F5
:100CE000C90168EE73E00E94490E605D60930F01D8
:100CF000E4E6F0E0BF010E94490E605D60931001E0
:100D0000C901BF010E94490EEAE0F0E0BF010E9464
:100D1000490E605D60931101C901BF010E94490E37
:100D2000805D809312011092130189E091E0289672
:100D30000FB6F894DEBF0FBECDBFDF91CF910895FF
:100D4000CF93DF93CDB7DEB766970FB6F894DEBFCB
:100D50000FBECDBF8EE0E4E1F1E0DE01119601901F
:100D60000D928A95E1F70E942F05292F2150330B10
:100D7000F901EE0FFF1F81E090E08C0F9D1FE80F3F
:100D8000F91F8081918166960FB6F894DEBF0FBE81
:100D9000CDBFDF91CF910895CF93909135039923E3
:100DA00009F441C094EE9093BC009091BC0097FF71
:100DB000FCCF90ED9093BB0094EC9093BC0090918D
:100DC000BC0097FFFCCF8093BB0084EC8093BC00F9
:100DD0008091BC0087FFFCCF84EE8093BC008091A3
:100DE000BC0087FFFCCF81ED8093BB0084EC809337
:100DF000BC008091BC0087FFFCCF84EC8093BC00DA
:100E00008091BC0087FFFCCFC091BB0084E8809339
:100E1000BC008091BC0087FFFCCF84E98093BC00BC
:100E20008C2FCF910895C82F80ED0E940D050E9450
:100E3000840261E080912D030E941B024C2F60917F
:100E40002C0380912D030E94EE040E94840281ED08
:100E50000E940D050E9484020E94C704C82F0E94B0
:100E600066020E944C02DCCF0F931F93CF938C013C
:100E7000C62F0E94DC036C2F6460C8010E94DC0353
:100E80006C2F6B7FC8010E94DC0383EC90E001971C
:100E9000F1F7CF911F910F9108950F931F93CF9367
:100EA000DF938C01D62FC42F607F642B0E94340700
:100EB00080E1D89FB00111246C2BC801DF91CF9144
:100EC0001F910F910C943407CF93DF93CDB7DEB70A
:100ED00028970FB6F894DEBF0FBECDBF98E0E2E2D0
:100EE000F1E0DE01119601900D929A95E1F7909153
:100EF0002803961708F46FEF262F30E0220F331FD8
:100F000041E050E04C0F5D1F240F351FF901608157
:100F1000680F606840E080E293E028960FB6F8948E
:100F2000DEBF0FBECDBFDF91CF910C944D0741E0E6
:100F30000E944D0781E090E00895FB0101900020A0
:100F4000E9F73197AF01461B570BDC01ED91FC919E
:100F50000280F381E02D09948F929F92AF92BF920D
:100F6000EF92FF920F931F93CF93DF93CDB7DEB72E
:100F7000A1970FB6F894DEBF0FBECDBF7C01FA017A
:100F8000CB0119A2223008F42AE08E010F5D1F4F19
:100F9000822E912CB12CA12CBF01A50194010E949D
:100FA0005D0EF901CA016A300CF5605DD8016E93DF
:100FB0008D01232B242B252B79F790E080E01097CF
:100FC00021F0BD01C7010E949D07A1960FB6F894BC
:100FD000DEBF0FBECDBFDF91CF911F910F91FF906C
:100FE000EF90BF90AF909F908F900895695CDECF97
:100FF0006115710511F00C949D0790E080E0089553
:1010000085ED8093BC008091F7019091F801A0914B
:10101000F901B091FA010796A11DB11D23E0B69523
:10102000A795979587952A95D1F72091BC0024FD27
:1010300003C01092400208954091F7015091F801C9
:101040006091F9017091FA01452B462B472B69F30A
:101050000097A105B10541F025E32A95F1F70000BD
:101060000197A109B109E1CF8091F6010C943503F4
:101070001F920F920FB60F9211242F933F934F930D
:101080005F936F937F938F939F93AF93BF93EF93F0
:10109000FF9387E792E00E940C01FF91EF91BF91CF
:1010A000AF919F918F917F916F915F914F913F9100
:1010B0002F910F900FBE0F901F9018951F920F92B7
:1010C0000FB60F9211242F938F939F93EF93FF935B
:1010D000E0918702F09188028081E0918D02F09189
:1010E0008E0282FD1BC09081809190028F5F8F7372
:1010F00020919102821741F0E0919002F0E0E958CE
:10110000FD4F958F80939002FF91EF919F918F916A
:101110002F910F900FBE0F901F9018958081F4CFE4
:101120001F920F920FB60F9211242F933F938F931C
:101130009F93AF93BF938091670290916802A091B3
:101140006902B0916A023091660223E0230F2D37C5
:1011500058F50196A11DB11D209366028093670288
:1011600090936802A0936902B0936A0280916B0227
:1011700090916C02A0916D02B0916E020196A11D3A
:10118000B11D80936B0290936C02A0936D02B0939B
:101190006E02BF91AF919F918F913F912F910F90D0
:1011A0000FBE0F901F90189526E8230F0296A11DE1
:1011B000B11DD2CF1F920F920FB60F9211242F9311
:1011C0003F934F935F936F937F938F939F93AF93CF
:1011D000BF93EF93FF938091B900887F803609F425
:1011E0004AC0F0F5883209F4A7C018F5803109F437
:1011F0009BC0B8F4882309F4F9C0883009F494C07E
:10120000FF91EF91BF91AF919F918F917F916F91DE
:101210005F914F913F912F910F900FBE0F901F90B4
:101220001895883109F488C0803251F780933F02C5
:1012300014C0803409F49DC040F48033B9F388337E
:10124000F9F680933F0285ECB0C0803509F485C083
:10125000883509F496C0883499F60E940008D0CFEA
:10126000883909F48CC038F5883729F050F488366D
:1012700011F0803729F683E08093400210923E02FD
:1012800057C0883809F47BC0803919F0803809F0DC
:10129000B7CF80913E02803208F071C0E0913E02EB
:1012A00081E08E0F80933E028091BB00F0E0E25E11
:1012B000FD4F80833DC0803B39F0E0F4803A09F473
:1012C00079C0883A09F09CCF84E080934002109264
:1012D0001D0210921C02E0917102F09172020995B8
:1012E00080911C0281110FC081E080931C0210923A
:1012F000FC0109C0803C09F4A6CF883C09F4A3CFC7
:10130000883B09F07DCFE0911D0281E08E0F809334
:101310001D02F0E0E450FE4F80818093BB0090916D
:101320001D0280911C0229C0809165028093BB0040
:1013300085EC8093BC0064CF90916402809163023D
:10134000981758F5E091640281E08E0F8093640253
:10135000F0E0ED5BFD4F8081E9CFE091640281E038
:101360008E0F809364028091BB00F0E0ED5BFD4F37
:10137000808390916402809163029817C8F285E897
:10138000D8CFE091640281E08E0F80936402809157
:10139000BB00F0E0ED5BFD4F808380914202811144
:1013A0005CCF81E08093410284EA8093BC0010927C
:1013B000400226CF85EC8093BC00109240028091C1
:1013C0003E02803230F4E0913E02F0E0E25EFD4FFA
:1013D000108260913E0270E0E0916F02F091700225
:1013E0008EE192E0099510923E020ACF10923F02E0
:1013F00034CFE7E7F2E01382128288EE93E0A0E0B8
:10140000B0E084839583A683B7832EE231E03183F5
:10141000208325EC30E03587248724EC30E03787C3
:10142000268720EC30E0318B208B21EC30E0338BB1
:10143000228B22EC30E0358B248B26EC30E0378B8E
:10144000268B118E128E138E148EE4E1F3E013823C
:10145000128284839583A683B78380E491E091838D
:101460008083ECE2F3E082E1818383E18083E0E248
:10147000F3E01382128282E591E09183808380E21F
:10148000848380E1818782E0828713860895CF93E9
:10149000DF93CDB7DEB728970FB6F894DEBF0FBE47
:1014A000CDBF789484B5826084BD84B5816084BDED
:1014B00085B5826085BD85B5816085BD80916E00F2
:1014C000816080936E001092810080918100826023
:1014D0008093810080918100816080938100809160
:1014E00080008160809380008091B100846080934F
:1014F000B1008091B00081608093B00080917A004B
:10150000846080937A0080917A00826080937A0070
:1015100080917A00816080937A0080917A0080685F
:1015200080937A001092C100E0918702F0918802C6
:1015300082E08083E0918302F09184021082E09146
:101540008502F09186028FEC808310928F02E091E9
:101550008B02F0918C0286E08083E0918902F09109
:101560008A02808180618083E0918902F0918A0201
:10157000808188608083E0918902F0918A02808175
:1015800080688083E0918902F0918A0280818F7D5A
:10159000808380912D03823109F0B3C180912C03A7
:1015A000833109F0AEC181E08093350361E082E1CF
:1015B0000E94ED0161E083E10E94ED018091B9009C
:1015C0008E7F8093B9008091B9008D7F8093B900A0
:1015D0008CE08093B80085E08093BC001092760286
:1015E0001092750210927402109273020E941703F7
:1015F0008CE890E090937202809371028DE890E005
:101600009093700280936F021092250380912A03B9
:10161000823018F098E0909325038093280362E3CA
:1016200070E080E090E00E94BE0260912B0380E2B7
:1016300093E00E94DC0368EE73E080E090E00E949B
:10164000BE0260E380E293E00E9434070BE416E4FC
:10165000C8010197F1F760E380E293E00E9434074C
:10166000C8010197F1F760E380E293E00E9434073C
:1016700083E592E00197F1F760E280E293E00E9457
:10168000340760912503606240E080E293E00E94AD
:101690004D0784E08093260340E06CE080E293E015
:1016A0000E944D0740E061E080E293E00E944D0718
:1016B0000BE31FE1C8010197F1F782E08093270354
:1016C00040E066E080E293E00E944D0740E062E087
:1016D00080E293E00E944D07C8010197F1F788E08E
:1016E00080932B0360E080E293E00E94DC039AE0A9
:1016F000B92E2AE3922E00E010E030E3A32E81E120
:101700000E94CC06F82E82E10E94CC06682F70E081
:1017100086E0759567958A95E1F7072E000C880B92
:10172000990B0E94440D20E030E040E85EE30E9407
:10173000D00D2B013C016F2D70E090E080E00E9405
:10174000420D9B01AC01C301B2010E94A00C0E949A
:101750000C0D6B010E94A006BC0187E792E00E947D
:10176000F80766E971E087E792E00E94F8070E94B7
:101770003606BC0187E792E00E94F80763E971E052
:1017800087E792E00E94F8070E942F053A834B8377
:101790002A3008F0BEC0A0920001822F6B2D0E945B
:1017A0003D0E905D90930101909202012A812A30B2
:1017B00008F0B7C0A0920301822F6B2D0E943D0E4E
:1017C000905D90930401909205012B812A3008F0DE
:1017D000AFC0A0920601822F6B2D0E943D0E905D3E
:1017E000909307011092080160E071E087E792E0B2
:1017F0000E949D0768E971E087E792E00E949D07DB
:101800006BE971E087E792E00E94F8070D2C000C6D
:10181000EE08FF082AE0B701A601F7FE0DC06DE251
:1018200087E792E00E942E0144275527BA014C1900
:101830005D096E097F092AE087E792E00E94AC0704
:1018400068E971E087E792E00E949D0760E080E030
:101850000E94640763EA71E080E293E00E94F80767
:101860000E94A006BC0180E293E00E94F80741E0DC
:101870006DE280E293E00E944D0761E080E00E940B
:10188000640769EA71E080E293E00E94F8070E9431
:101890003606BC0180E293E00E94F80760E081E038
:1018A0000E9464076FEA71E080E293E00E94F8070B
:1018B0002AE0B701A601F7FE0EC041E06DE280E22A
:1018C00093E00E944D0744275527BA014C195D0942
:1018D0006E097F092AE080E293E00E94AC0768EE7F
:1018E00073E080E090E00E94BE020115110509F44A
:1018F00006CF0E94F800882309F401CF0E9400005F
:10190000FECE1092350361E080912C030E941B02F1
:1019100065CE822F6B2D0E943D0E805D809300016D
:101920003CCF822F0E943D0E805D8093030144CF07
:10193000822F0E943D0E805D809306014CCF50584F
:10194000BB27AA270E94B70C0C94960D0E94880D05
:1019500038F00E948F0D20F039F49F3F19F426F4DF
:101960000C94850D0EF4E095E7FB0C947F0DE92FA8
:101970000E94A70D58F3BA176207730784079507EB
:1019800020F079F4A6F50C94C90D0EF4E0950B2E19
:10199000BA2FA02D0B01B90190010C01CA01A001C1
:1019A0001124FF27591B99F0593F50F4503E68F11C
:1019B0001A16F040A22F232F342F4427585FF3CF5D
:1019C000469537952795A795F0405395C9F77EF42E
:1019D0001F16BA0B620B730B840BBAF09150A1F077
:1019E000FF0FBB1F661F771F881FC2F70EC0BA0FFD
:1019F000621F731F841F48F4879577956795B79585
:101A0000F7959E3F08F0B0CF9395880F08F099277F
:101A1000EE0F9795879508950E94130D6894B11164
:101A20000C94CA0D08950E94AF0D88F09F5798F04E
:101A3000B92F9927B751B0F0E1F0660F771F881FD3
:101A4000991F1AF0BA95C9F714C0B13091F00E94ED
:101A5000C90DB1E008950C94C90D672F782F882720
:101A6000B85F39F0B93FCCF3869577956795B39514
:101A7000D9F73EF490958095709561957F4F8F4F83
:101A80009F4F0895E89409C097FB3EF49095809588
:101A9000709561957F4F8F4F9F4F9923A9F0F92F34
:101AA00096E9BB279395F695879577956795B795B2
:101AB000F111F8CFFAF4BB0F11F460FF1BC06F5F98
:101AC0007F4F8F4F9F4F16C0882311F096E911C0AA
:101AD000772321F09EE8872F762F05C0662371F0CB
:101AE00096E8862F70E060E02AF09A95660F771FDF
:101AF000881FDAF7880F9695879597F9089597F9D3
:101B00009F6780E870E060E008959FEF80EC0895A3
:101B100000240A94161617061806090608950024CC
:101B20000A9412161306140605060895092E039446
:101B3000000C11F4882352F0BB0F40F4BF2B11F4BA
:101B400060FF04C06F5F7F4F8F4F9F4F089557FD19
:101B50009058440F551F59F05F3F71F04795880F1B
:101B600097FB991F61F09F3F79F0879508951216B2
:101B700013061406551FF2CF4695F1DF08C016165E
:101B800017061806991FF1CF86957105610508940F
:101B90000895E894BB2766277727CB0197F9089526
:101BA0000E94E30D0C94960D0E94880D38F00E945F
:101BB0008F0D20F0952311F00C947F0D0C94850D62
:101BC00011240C94CA0D0E94A70D70F3959FC1F3C8
:101BD000950F50E0551F629FF001729FBB27F00DDB
:101BE000B11D639FAA27F00DB11DAA1F649F662730
:101BF000B00DA11D661F829F2227B00DA11D621F7F
:101C0000739FB00DA11D621F839FA00D611D221F38
:101C1000749F3327A00D611D231F849F600D211D1C
:101C2000822F762F6A2F11249F5750409AF0F1F09F
:101C300088234AF0EE0FFF1FBB1F661F771F881F08
:101C400091505040A9F79E3F510580F00C947F0DB4
:101C50000C94CA0D5F3FE4F3983ED4F386957795D4
:101C60006795B795F795E7959F5FC1F7FE2B880FAE
:101C7000911D9695879597F90895991B79E004C071
:101C8000991F961708F0961B881F7A95C9F78095BB
:101C9000089597FB072E16F4009407D077FD09D01E
:101CA0000E947F0E07FC05D03EF4909581959F4FD2
:101CB0000895709561957F4F0895A1E21A2EAA1B91
:101CC000BB1BFD010DC0AA1FBB1FEE1FFF1FA217EC
:101CD000B307E407F50720F0A21BB30BE40BF50BE9
:101CE000661F771F881F991F1A9469F76095709572
:101CF000809590959B01AC01BD01CF010895AA1B71
:101D0000BB1B51E107C0AA1FBB1FA617B70710F0E6
:101D1000A61BB70B881F991F5A95A9F78095909518
:101D2000BC01CD010895EE0FFF1F0590F491E02D49
:061D30000994F894FFCFB6
:101D36007878787878787878007878787878787895
:101D4600787878005A016101690173017C01830189
:101D56008C010000400014005400000000002E0119
:101D66008E00BB007B01EC00CA00DE000000000014
:101D7600AD038003C40456037903660357030000CA
:101D8600000097078E00C404C3044D6F6E6461792A
:101D96000054756573646179005765646E65736494
:101DA600617900546875727364617900467269647A
:101DB60061790053617475726461790053756E645C
:101DC600617900202D2D20000D0A0074656D7020AC
:101DD6003D200074696D653A00646174653A00548B
:041DE600656D3A00ED
:00000001FF
